:020000040000FA
:060000000A128A110C280F
:10000800FE00030EF0000A08F1000A128A15E82E15
:100018000A128A110F280A128A1516260A128A113C
:10002800C0000A128A1517260A128A11C1000A127C
:100038008A1518260A128A11C2000A128A15192668
:100048000A128A11C300B301B401B501B601B701A0
:10005800B801B901BA01BB01BC01BD01BE01BF01B4
:10006800FA01FB0183010A128A11D42983120313AE
:10007800AC00103028062904031D432844287028A2
:10008800B901B301B401B801B701FF30AC00663063
:10009800F6008030F7000A128A1573260A128A11B0
:1000A8008A3083120313A600DF300A128A11EB2468
:1000B8000A128A11AD30F600C030F7000A128A150C
:1000C80073260A128A114530F600D030F7000A125A
:1000D8008A1573260A128A11831203133808031922
:1000E8007628772880286230F600C830F7000A1290
:1000F8008A1573260A128A112A30831203132C06D2
:10010800031987288828A82823302C0603198D2846
:100118008E28A8282C0A031992289328A828013089
:10012800B9070430390203189A289B28D3290A30C2
:10013800F20037080A128A1542260A128A11831217
:1001480003132C07B700D3292A302C06031DAD282A
:10015800AE28B128B701B901D329B5303702031841
:10016800B628B728CC2923302C06031DBC28BD2867
:1001780052290A128A11EF270A128A117530F600DD
:100188008030F7000A128A1573260A128A119330F2
:10019800F6009030F7000A128A1573260A128A119F
:1001A800123083120313BF0012153C299C30A6009D
:1001B8006430F2000030F3003F08AA00AB012A08BF
:1001C800F4002B08F5000A128A1188240A128A11F1
:1001D8007208303E0A128A11EB240A128A119D30E5
:1001E80083120313A6000A30A0000030A1000A30D1
:1001F800F2000030F3003F08AA00AB012A08F4001F
:100208002B08F5000A128A1188240A128A11730829
:1002180083120313A3007208A2000A128A15A727E3
:100228000A128A11831203132008303E0A128A1117
:10023800EB240A128A119E3083120313A6000A3097
:10024800A0000030A1003F08AA00AB012A08A200C4
:100258002B08A3000A128A15A7270A128A118312EB
:1002680003132008303E0A128A11EB240A128A115D
:10027800831203133F08031D42294329DA283F0844
:10028800031D4729482952290A128A11EF270A1201
:100298008A11013083120313BD0012110130B30714
:1002A8000318B40A0030B407153033063404031DAC
:1002B8005E295F29D329B301B401380803196529D8
:1002C8006729013068290030B800C830A6006430BA
:1002D800F2000030F3003708AA00AB012A08F40046
:1002E8002B08F5000A128A1188240A128A1172084A
:1002F800303E0A128A11EB240A128A11C93083127D
:100308000313A6000A30A0000030A1000A30F20052
:100318000030F3003708AA00AB012A08F4002B08C4
:10032800F5000A128A1188240A128A1173088312A6
:100338000313A3007208A2000A128A15A7270A123B
:100348008A11831203132008303E0A128A11EB2403
:100358000A128A11CA3083120313A6000A30A000B9
:100368000030A1003708AA00AB012A08A2002B0818
:10037800A3000A128A15A7270A128A1183120313E7
:100388002008303E0A128A11EB240A128A11D32956
:10039800B5303702031CD129D229D329AE28080049
:1003A8000A128A1555260A128A1101300A128A156C
:1003B800BD260A128A1183120313B20002304206C4
:1003C8004304031DE829E929662A3203031DED29A0
:1003D800EE29262A0330C2000030C3001030B000D6
:1003E8000030B1000A128A11EF270A128A11073069
:1003F80083120313AF005830AE005930AD00AD0B77
:10040800032AAE0B032AAF0B032A1230F600C030C2
:10041800F7000A128A1573260A128A1133308312DA
:100428000313AF00BB30AE00DF30AD00AD0B1A2AAE
:10043800AE0B1A2AAF0B1A2A0A128A11EF270A12D0
:100448008A11122B02303206031D2B2A2C2A3C2A31
:100458000A128A11EF270A128A1104308312031331
:10046800C2000030C3001030B0000030B100122BC1
:1004780003303206031D412A422A4E2A0A128A11E3
:10048800EF270A128A11053083120313C2000030C5
:10049800C300372A04303206031D532A542A652A1A
:1004A8000A128A11EF270A128A111E3083120313C7
:1004B800BF00BE01071512150730C2000030C30087
:1004C800122B122B073042064304031D6C2A6D2A97
:1004D800982A04303206031D722A732A822A3F089A
:1004E8001E3EBF003C303F02031C7B2A7C2A122B95
:1004F8000130BE073F08C43EBF00122B053032064C
:10050800031D872A882A8D2A0930C2000030C300BB
:10051800122B06303206031D922A932A652A0A30C6
:10052800C2000030C300122B093042064304031DE9
:100538009E2A9F2A652A04303206031DA42AA52A6A
:10054800122B07151215602A0A128A1185270A121A
:100558008A11023083120313C2000030C3000A124A
:100568008A11EF270A128A11332B0A128A15982644
:100578000A128A11332B3108A9003008A800320862
:100588000A128A113D230A128A11332B3108A90055
:100598003008A80032080A128A113D230A128A116B
:1005A800332B3D08031DD92ADA2AF02A3108A9007D
:1005B8003008A80032080A128A113A200A128A1151
:1005C800831203133D03031DEA2AEB2A332B103051
:1005D800B0000030B100D9293108A9003008A800BE
:1005E80032080A128A113D230A128A11332B0A1281
:1005F8008A11F2250A128A11332B07111211332B93
:100608000A128A11EF270A128A118312031307119B
:1006180012110230C2000030C300332B83120313BF
:100628004308003A0319192B332B4208013A0319DE
:10063800A82A033A0319B92A013A0319BF2A073A23
:100648000319CA2A013A0319D52A023A0319FB2ABF
:100658000E3A0319012B033A0319042B332B0F30DD
:1006680083120313B0000030B100D9290A128A118D
:100678000C2883120313AC00103028062904031D2C
:10068800462B472B6B2BBC01BF01BE01BB01B5013B
:10069800B601BA01FF30AC003430F6008030F70004
:1006A8000A128A1573260A128A11B630F600C0306B
:1006B800F7000A128A1573260A128A114530F600C5
:1006C800D030F7000A128A1573260A128A112A30C6
:1006D800831203132C060319722B732BAF2B2330B1
:1006E8002C060319782B792BAF2B2C0A03197D2B99
:1006F8007E2BAF2B0130BC0703303C020318852B3F
:10070800862B942B0A30F2003F080A128A154226DB
:100718000A128A11831203132C07BF00BB01D42BC2
:1007280003303C02031C992B9A2BD42B05303C0236
:1007380003189F2BA02BD42B0A30F2003E080A1274
:100748008A1542260A128A11831203132C07BE0047
:100758000130BB00D42B2A302C06031DB42BB52B3B
:10076800C12B3B08031DB92BBA2BBD2BBF01BC0104
:10077800D42BBE010230BC00D42B23302C06031D21
:10078800C62BC72BD42B0A128A11EF270A128A11FB
:10079800073083120313C2000030C3000715121577
:1007A8000130B5070318B60A0030B607153035060C
:1007B8003604031DE02BE12B632CB501B6013A0882
:1007C8000319E72BE92B0130EA2B0030BA00C730B8
:1007D800A6000A30F2000030F3003E08AA00AB0180
:1007E8002A08F4002B08F5000A128A1188240A1234
:1007F8008A117208303E0A128A11EB240A128A11F1
:10080800C83083120313A6000A30A0000030A100EC
:100818003E08AA00AB012A08A2002B08A3000A126E
:100828008A15A7270A128A11831203132008303E5B
:100838000A128A11EB240A128A11C930831203138F
:10084800A6003A300A128A11EB240A128A11CA3019
:1008580083120313A6000A30F2000030F3003F08A9
:10086800AA00AB012A08F4002B08F5000A128A1125
:1008780088240A128A117208303E0A128A11EB245F
:100888000A128A11CB3083120313A6000A30A00083
:100898000030A1003F08AA00AB012A08A2002B08DB
:1008A800A3000A128A15A7270A128A1183120313B2
:1008B8002008303E0A128A11EB240A128A11831288
:1008C80003133A080319692C6A2C872C7F2C633090
:1008D800F600CA30F7000A128A1573260A128A111E
:1008E800872C6330F600C730F7000A128A15732682
:1008F8000A128A11872C3B08003A03196B2C013A1B
:100908000319752C872C0800F701F31F8C2C8D2CEC
:10091800942CF209F309F20A0319F30A0130F700DB
:10092800F51F972C982C9F2CF409F509F40A031944
:10093800F50A0130F706F801F90172087304031982
:10094800A62CA72CDC2C0130F600B32C01300310A8
:10095800F20DF30DFF3E031DAB2C0130F607F31F1C
:10096800B62CB72CAA2C01300310F80DF90DFF3E58
:10097800031DB82C73087502031DC42C7208740279
:10098800031CC72CC82CCF2C7208F4027308031C54
:10099800F503F502781401300310F30CF20CFF3E56
:1009A800031DD02C0130F602031DDB2CDC2CB72CE8
:1009B80077080319E02CE12CE62CF809F909F80A64
:1009C8000319F90A7908F3007808F200080083127D
:1009D8000313A700F20126080A128A151D270A1216
:1009E8008A11F201F20A8312031327080A128A15E0
:1009F8001D270A128A11080005308A000408840A93
:100A0800820700342034203450344F34573445346E
:100A1800523449344E34473420344F344E34203421
:100A28002034203400342034203450344F345734A8
:100A38004534523420343D34203439343034303461
:100A4800573420342034003420344D34493443346E
:100A580052344F34573441345634453420344F34AB
:100A6800563445344E3420340034533445345434E9
:100A78002034543449344D344534203428344D34EA
:100A88004D343A3453345334293400342A343A3404
:100A980043344C34453441345234203420342334E4
:100AA8003A3445344E3454344534523400342034C6
:100AB80020342034543449344D34453420345534AA
:100AC800503421342134203420342034003420346C
:100AD8005334453454342034543445344D3450342C
:100AE800283420344334293420340034203420344A
:100AF8005034523445342D34483445344134543418
:100B080049344E3447342034003434342E3453348A
:100B180054344134523454342F34523445345334D9
:100B280055344D3445340034543449344D34453407
:100B38002034523445344D342E3420343D3420345E
:100B4800003433342E3443344F344E345634453421
:100B58004334543449344F344E34003420345434FC
:100B680045344D34503420343D342034003454342A
:100B780049344D34453420342D3420340034543431
:100B880049344D34453420343D3420340034353430
:100B98002E345034413455345334453400343234CF
:100BA8002E344734523449344C344C3400343134C4
:100BB8002E344D344934433452344F3400343434B1
:100BC8002E3453345434413452345434003436348B
:100BD8002E34533454344F3450340034BE30F6007D
:100BE8008030F7000A128A1573260A128A11883093
:100BF80083120313A6000A30F2000030F3003E0807
:100C0800A800A9012808F4002908F5000A128A1189
:100C180088240A128A117208303E0A128A11EB24BB
:100C28000A128A11893083120313A6000A30A00021
:100C38000030A1003E08A800A9012808A200290840
:100C4800A3000A128A15A7270A128A11831203130E
:100C58002008303E0A128A11EB240A128A118A30BF
:100C680083120313A6003A300A128A11EB240A12DF
:100C78008A118B3083120313A6000A30F200003069
:100C8800F3003F08A800A9012808F4002908F50086
:100C98000A128A1188240A128A117208303E0A122E
:100CA8008A11EB240A128A118C3083120313A600CE
:100CB8000A30A0000030A1003F08A800A9012808B8
:100CC800A2002908A3000A128A15A7270A128A1166
:100CD800831203132008303E0A128A11EB240A12E9
:100CE8008A118430F600C030F7000A128A1573267C
:100CF8000A128A11C630F6009030F7000A128A15D7
:100D080073260A128A11E630F600D030F7000A126C
:100D18008A1573260A128A11831203133F08031DCA
:100D2800962E972EC92E3E08031D9B2E9C2EC92E4B
:100D38000A128A11EF270A128A115630F600C030BB
:100D4800F7000A128A1573260A128A1183120313EE
:100D580087144D3083120313AA001930A9004F30AD
:100D6800A800A80BB52EA90BB52EAA0BB52E0A12F2
:100D78008A11EF270A128A118312031307118710A9
:100D880012110230C2000030C3000800831203139E
:100D980088110815881408146430F2000030F30034
:100DA800FF30F2070318F30AFF30F307720A031D36
:100DB800E12E730A031DE12EE22ED42E83120313B3
:100DC8000618E72EE82EEA2E0130842F8618ED2E1D
:100DD800EE2EF02E0230842F0619F32EF42EF62E66
:100DE8000330842F88150811881408146430F20021
:100DF8000030F300FF30F2070318F30AFF30F3075F
:100E08007308803AFF0080307F02031D0D2F0130E8
:100E180072020318102F112FFE2E831203130618C7
:100E2800162F172F192F0430842F86181C2F1D2FCB
:100E38001F2F0530842F0619222F232F252F063028
:100E4800842F88150815881008146430F2000030C3
:100E5800F300FF30F2070318F30AFF30F3077308B3
:100E6800803AFF0080307F02031D3C2F0130720260
:100E780003183F2F402F2D2F831203130618452FD9
:100E8800462F482F0730842F86184B2F4C2F4E2F74
:100E98000830842F0619512F522F542F0930842FD0
:100EA80088150815881408106430F2000030F30023
:100EB800FF30F2070318F30AFF30F3077308803A8C
:100EC800FF0080307F02031D6B2F01307202031870
:100ED8006E2F6F2F5C2F831203130618742F752F34
:100EE800772F2A30842F86187A2F7B2F7D2F00307A
:100EF800842F0619802F812F832F2330842FFF30D2
:100F0800080083120313AB012B08803EA600FF30B4
:100F18000A128A11EB240A128A110330831203136E
:100F2800AA008A30A9005530A800A80B992FA90B50
:100F3800992FAA0B992F013083120313AB07103096
:100F48002B02031CA82FA92F882F0130F600C030D0
:100F5800F7000A128A1573260A128A112330F6003E
:100F68009030F7000A128A1573260A128A11831222
:100F78000313AB012B08D03EA600FF300A128A11DA
:100F8800EB240A128A11033083120313AA008A3051
:100F9800A9005530A800A80BCF2FA90BCF2FAA0B5B
:100FA800CF2F013083120313AB0710302B02031C21
:100FB800DE2FDF2FBE2F1A3083120313AA005E30F4
:100FC800A9006D30A800A80BE72FA90BE72FAA0BE3
:100FD800E72FEE2F0800F20101300A128A151D27AB
:100FE8000A128A110430F7003D30F600F60BFA2F8A
:080FF800F70BFA2FFF2F080090
:101C2C000134003401340034831603138801091184
:101C3C0089100A128A1553270A128A150800831272
:101C4C00031312149214FA308316031392008C149B
:101C5C0083120313121108008316031306080738A6
:101C6C0086000808F0398800811383120313881545
:101C7C000815881408140800F400F301741C472E8E
:101C8C00482E4A2E7208F3070310F20D0310F40CC1
:101C9C007408031D522E532E442E730808000A128A
:101CAC008A151A260A128A150A128A1532260A125F
:101CBC008A15831603130711831203130711831656
:101CCC00031387108312031387100A128A15252613
:101CDC000A128A158B170B170800F20177080A12E3
:101CEC008A151D270A128A158B2EF201F20A760824
:101CFC0084000A128A1100250A128A150A128A1502
:101D0C001D270A128A150130F607760884000A127C
:101D1C008A1100250A128A15003A031D962E972E59
:101D2C007B2E0800D630F6008030F7000A128A1598
:101D3C0073260A128A15CE30F600C030F7000A124C
:101D4C008A1573260A128A15A030F6009030F70017
:101D5C000A128A1573260A128A15DE30F600D03064
:101D6C00F7000A128A1573260A128A150800F40065
:101D7C000A128A11CA260A128A15F5007408031D64
:101D8C00C82EC92ECB2E7508E72E750A0319CF2E37
:101D9C00D02EDB2E83120313400841040319D72ED7
:101DAC00D82EDB2EC001C101C92E750A031DDF2EF2
:101DBC00E02EE62E013083120313C0000030C10068
:101DCC00FF300800831203138C1CED2EEE2E162F01
:101DDC000130FA070318FB0A0030FB07E2307A06E1
:101DEC00043003197B06031DFC2EFD2E152FFA0162
:101DFC00FB013F080319032F042F072F0130BF02EB
:101E0C00152F3F08031D0B2F0C2F152F3E08031900
:101E1C00102F112F152F0130BE023B30BF008C103C
:101E2C0071088A00700E8300FE0E7E0E0900F5000C
:101E3C007218212F252F831203130915282F8312B3
:101E4C00031309117508F03988008914A630F300C2
:101E5C00F30B2E2F000083120313891075080F3912
:101E6C00F30003300310F30DFF3E031D382F031056
:101E7C00730D88008914A630F300F30B432F000078
:101E8C008312031389101B30F4009E30F300F30B04
:101E9C004D2FF40B4D2F000008001030F600F60B00
:101EAC00552F0000F20133300A128A151D270A1231
:101EBC008A151B30F7009E30F600F60B632FF70BDC
:101ECC00632F0000F20133300A128A151D270A1203
:101EDC008A15A630F600F60B712F0000F201333094
:101EEC000A128A151D270A128A157C2F7D2F0000D5
:101EFC00F20102300A128A151D270A128A15A63021
:101F0C00F600F60B872F0000F20101300A128A1539
:101F1C001D270A128A150430F7003D30F600F60B27
:101F2C00952FF70B952F9A2FF2010C300A128A1568
:101F3C001D270A128A15A630F600F60BA32F0000F7
:101F4C00080083120313A501A31FAD2FAE2FB52FCD
:101F5C00A209A309A20A0319A30A0130A500A11F13
:101F6C00B82FB92FBE2FA009A109A00A0319A10AE5
:101F7C00200821040319C32FC42FF12F0130A40012
:101F8C00D02F01300310A00DA10DFF3E031DC82F53
:101F9C000130A407A11FD32FD42FC72F2108230250
:101FAC00031DDA2F20082202031CDD2FDE2FE42F65
:101FBC002008A2022108031CA303A3020130031072
:101FCC00A10CA00CFF3E031DE52F0130A402031D44
:101FDC00F02FF12FD42F25080319F52FF62FFB2FF7
:101FEC00A209A309A20A0319A30A2308A100220823
:041FFC00A000080039
:02400E00FB3F76
:00000001FF
